:4000000000800020110000008D0600008D06000080B500AF024A034B1B68136000F040FBBC760040FA46004010B5054C237833B9044B13B10448AFF300800123237010BDB6
:400040006881FF1F00000000FC2E0000084B10B51BB108490848AFF300800848036803B910BD074B002BFBD0BDE81040184700BF000000006C81FF1FFC2E0000C880FF1F6E
:400080000000000080B500AF62B60121002000F087FC002002F0D6FD02F012FE00F018FC044800F093FB044B00221A7000F024F8FCE700BFBD000000AC82FF1F80B500AF44
:4000C0000C4B1B78DBB2184602F04EFE094B1B78DBB20133DAB2074B1A70064B1B78DBB2962B02D1034B00221A7000F013FC00BF80BD00BFAC82FF1F80B582B000AF2B4B4C
:400100001B78002B0AD100F0EFFD0346002B49D000F0D6FF254B01221A7043E001F040F80346002B3ED001F04DF80346FB71FB790D2B02D0FB790A2B10D11D4B1B881A46AF
:400140001C4B002199541B491B4802F0CEFE184B00221A80194B01221A7023E0FB79082B02D0FB797F2B0AD1114B1B88002B06D00F4B1B88013B9AB20D4B1A8012E00C4B20
:400180001B883E2B03D9212000F0EEFF0AE0084B1B885A1C91B2064A11801946054AFB795354FFE700BF0837BD4680BD9681FF1F9881FF1FA481FF1F0482FF1F9481FF1F4C
:4001C00080B582B000AF786039603A680021786802F083FE00BF0837BD4680BD80B584B000AFF860B9607A607A68B968F86802F069FE00BF1037BD4680BD00BF80B483B099
:4002000000AF0346FB71FEE780B487B000AF7860396000233B6100237B6127E07B699B007A6813441B68BB60BB68FB73BB6823F0FF03BB6014E03B695B003A6813441B786C
:400240001A46BB68134419463B695B003A6813445B780B703B6901333B61FB7B013BFB73FB7B002BE7D17B6901337B617B692B2BD4D900BF1C37BD4680BC704780B582B0C8
:4002800000AF3C4B04221A803B4B18221A703B4B3A221A803A4B18221A703A4B3B221A80394B18221A70394B81221A80384B18221A70384B00221A80374B1B221A70374B63
:4002C00006221A70364B52221A70364B364A1278D2B21A70354B40F619121A80344B41F251221A800023FB7019237B6014E0FB785B00DAB22F4B1B78DBB203F00103DBB2E9
:400300001343DBB203F00303FB704FF4F07002F05BFD7B68013B7B607B68002B02D0FB78032BE4D17B68002B02D10320FFF766FF214B4FF480721A801F4B07221A701F4B38
:4003400000221A701E4B48221A701B4B00221A701C4B00221A701C4B02221A701B4A1B4B1B78DBB243F01F03DBB2137000BF0837BD4680BD804000408240004084400040A6
:4003800086400040884000408A4000408C4000408E40004090400040924000400043004000420040A14600400F01004922420040204200402542004004400040064000406D
:4003C000084000400940004001400040A243004080B582B000AF274B1B78FB71264B1B78BB71264B1B787B71254AFB7903F00703DBB21370234AFB791B09DBB213701E4A32
:40040000BB7943F00303DBB213701C4A7B7943F00303DBB213701C4BE0221A701B4BF4221A701B4B01221A701A4B40221A701A4B40221A70194B01221A70194B03221A70CA
:40044000184BED221A70184B20221A70174B0D221A700A2002F034FB084A7B791370064ABB791370124B44221A7000BF0837BD4680BD00BFCF010049F8460040F9460040BB
:400480006E5800406F5800400D5100401D5100402C5100400159004003590040835A00408C5A0040205B0040235B0040585B00407658004080B586B000AF72B6574B6122CC
:4004C0001A70FFF7DBFE554B01221A70544A544B1B78DBB243F00403DBB213700023FB7513E0FA7D13465B0013445B004D4A13443B613B691A683B699B889BB219461046D3
:40050000FFF75EFEFB7D0133FB75FB7D072BE8D90023FB751CE0FA7D13469B0013445B00414A1344FB60FB681B68BB60FB685B687B60FB681A7A5B7A1B0213437B807B88BA
:400540001A467968B868FFF749FEFB7D0133FB75FB7D012BDFD935494FF09040FFF754FE04213348FFF72CFE042232493248FFF735FE324B324A1A60324A324B1B78DBB200
:4005800043F00203DBB213702F4A2F4B1B78DBB243F00203DBB213702C4A2C4B1B78DBB243F04003DBB21370294A294B1B78DBB243F01003DBB21370082226492648FFF7AB
:4005C0000DFE082225492648FFF708FE0A2225492548FFF703FE082224492548FFF7FEFD0A2224492448FFF7F9FD082223492448FFF7F4FD234A234B1B78DBB243F00803E8
:40060000DBB21370FFF7E4FE0E2210491E48FFF7E5FD00BF1837BD4680BD00BF00480040E8460040002F0000302F0000B00000480076004010100048087600405804014009
:40064000040400840350014013500140A0430040C2430040D80F004802510040E00F0048C2510040E80F0048F0510040F40F004812510040FC0F00482051004008100048F0
:400680003251004022430040B043004080B500AF02F0ECFB03461B680C2B00D1FEE7FEE780B586B000AF224B7B61224B3B61204B7B6135E03B691B68FB603B695B68BB6078
:4006C0003B699B683B6000237B600CE0FB681A68BB681A60BB680433BB60FB680433FB607B6804337B607A683B689A42EED13B69DB683B6000237B6008E0BB6800221A60A6
:40070000BB680433BB607B6804337B607A683B689A42F2D13B6910333B617B69013B7B617B69002BC6D102F0A7FBFFF7ABFCFEE7010000002831000080B582B000AF194B1C
:40074000194A1A60194A194B1B6843F40073136000237B600FE07B68032B04D8144A7B6852F8233000E0134B13497A6841F822307B6801337B607B682F2BECD90F4B1B7895
:40078000DAB20F4B1A700F4B0B4A1A60FFF792FE02F05CF90C4B00221A6000BF0837BD4680BD00BF0CED00E00004FA0514ED00E0000000008D0600000080FF1FBC76004083
:4007C000C480FF1F08ED00E0C080FF1F80B582B000AF786000F03CF8786800F009F8072000F018F800F028F800BF0837BD4680BD80B485B000AF7860054B1B68FB60FB688B
:4008000058337A681A6000BF1437BD4680BC704708ED00E080B483B000AF0346FB71054AFB795B01DBB2137000BF0C37BD4680BC704700BF06E400E080B400AF034B4022EE
:400840001A6000BFBD4680BC704700BF00E100E080B400AF034B40221A6000BFBD4680BC704700BF80E100E080B582B000AF012000F05CF8012000F075F802F0ADFA03462C
:40088000FB710A4A094B1B78DBB243F01003DBB21370FB79184602F0A3FA00F073F8002000F028F800BF0837BD4680BD9164004080B400AF054A054B1B78DBB263F07F03D8
:4008C000DBB2137000BFBD4680BC70477F64004080B500AF064B1B78002B04D1FFF7C4FF034B01221A70FFF7E3FF00BF80BD00BF9A81FF1F80B483B000AF0346FB71044AAF
:40090000FB79137000BF0C37BD4680BC704700BF8164004080B400AF034B1B78DBB21846BD4680BC704700BF6164004080B483B000AF0346FB80044AFB88138000BF0C373B
:40094000BD4680BC704700BF4068004080B400AF034B1B889BB21846BD4680BC704700BF8068004080B483B000AF0346FB80044AFB88138000BF0C37BD4680BC704700BF89
:400980000068004080B500AF01E0FFF7DFFFFFF7C1FF034603F00803002BF6D100BF80BD80B582B000AF03460A46FB711346BB71094B1B78002B04D100F010F8064B012218
:4009C0001A70BA79FB791146184600F0D9F800BF0837BD4680BD00BF9B81FF1F80B582B000AF02F0F9F90346FB71544A534B1B78DBB243F00103DBB21370514A504B1B78FE
:400A0000DBB243F00103DBB213704E4B01221A704D4B02221A704D4A4C4B1B78DBB203F07F03DBB21370002002F04AF8484A484B1B78DBB223F00603DBB21370454A454B9F
:400A40001B78DBB223F02003DBB21370404A404B1B78DBB243F00103DBB21370012002F02FF8282002F02CF83B4A3B4B1B78DBB203F07F03DBB21370374A374B1B78DBB229
:400A800023F04003DBB21370314A314B1B78DBB243F00203DBB21370022002F011F82C4A2B4B1B78DBB243F00403DBB213702B4B00221A702A4B00221A70FB79184602F0F7
:400AC0008FF90721172002F037F82649172002F00BF80721182002F02FF82349182002F003F80721152002F027F82049152001F0FBFF0721012002F01FF81D49012001F088
:400B0000F3FF0721022002F017F81A49022001F0EBFF0721032002F00FF81749032001F0E3FF07210C2002F007F814490C2001F0DBFF00BF0837BD4680BD00BFA5430040C0
:400B4000B54300409D60004009600040106000409443004012600040F851004084600040856000409D1900008512000091190000A9180000F11800003D190000A919000033
:400B800080B582B000AF03460A46FB711346BB712E4AFB7913702E4B00221A702D4B00221A702D4B00221A702C4B00221A702C4B00221A702B4B00221A702B4B00221A702F
:400BC0002A4B4FF400021A60284B4FF080721A60264B4FF400121A60244B02221A60234B04221A60214B08221A60BB79002B02D0012B09D011E01E4A1D4B1B78DBB223F00E
:400C00000103DBB2137011E0194A194B1B78DBB243F00103DBB2137008E0154A144B1B78DBB243F00103DBB2137000BF114B03221A70114B80221A70012002F0C5F80F4BF8
:400C400004221A7000BF0837BD4680BDC982FF1FCC82FF1FE882FF1FEB82FF1FE082FF1FEA82FF1FED82FF1FC882FF1F00E100E00960004028600040086000401260004013
:400C800080B400AF0F4B00221A700F4B00221A700E4B00221A700E4B00221A700D4B00221A700D4B00221A700C4B00221A700C4B03221A700B4B80221A7000BFBD4680BCAA
:400CC000704700BFCC82FF1FE882FF1FEB82FF1FE082FF1FEA82FF1FED82FF1FC882FF1F286000400860004080B400AF034B1B78DBB21846BD4680BC704700BFEB82FF1FA1
:400D000080B483B000AF0346FB71FA79064913465B0013449B000B4401331B78DBB218460C37BD4680BC7047F082FF1F80B485B000AF0346FB710023FB81FB79002B1CD0BF
:400D4000FB79082B19D8104AFB791B0113441B78DBB29BB203F00F03FB81FB891B029AB20949FB791B010B4401331B78DBB29BB21343FB81FB89023BFB81FB8918461437B1
:400D8000BD4680BC704700BFFC5F0040B0B485B000AF03463960FB711346BB80FB79002B6DD0FB79082B6AD8B988FA79364813465B0013449B00034406331B889BB2C3F5F4
:400DC000007399420CD9FA792F4913465B0013449B000B4406331B889BB2C3F50073BB802A4CF979BB881B0A9BB2D8B2FA79264D13465B0013449B002B4403331B78DBB2D9
:400E00000343DAB20B0123441A70204AFB79B988C9B21B01134401330A461A703B68002B13D00023FB810CE01948FB79FA8939680A4412781B01034408331A70FB890133DB
:400E4000FB81FA89BB889A42EED3FA790E4913465B0013449B000B44013300221A700B48F979FA79084C13465B0013449B00234405331B78DAB20B01034402331A7000BF33
:400E80001437BD46B0BC7047F082FF1FFC5F00407060004080B584B000AF03463960FB711346BB803B68002B30D0FB79002B2DD0FB79082B2AD8FB791846FFF737FF034632
:400EC0001A46BB88934205D9FB791846FFF72EFF034600E0BB88BB800023FB810DE0FB893A6813440D49FA7912010A4408321278D2B21A70FB890133FB81FA89BB889A4225
:400F0000EDD3FB79184600F00BF801E00023BB80BB8818461037BD4680BD00BF7060004090B482B000AF0346FB71FB79002B1CD0FB79082B19D8FA790E4913465B00134424
:400F40009B000B44013300221A700B48F979FA79084C13465B0013449B00234405331B78DAB20B01034402331A7000BF0837BD4690BC7047F082FF1FFC5F004080B582B00F
:400F800000AF0023FB71314B1B79DBB2184600F067F80346BB712D4B1B78DBB25BB2002B15DA2A4B5B78DBB2212B00D048E0284B07221A80BA791346DB009B1A254A134444
:400FC000234A536000F0D8FA0346FB7138E01F4B5B78DBB2202B02D0222B1AD030E01C4B07221A80BA791346DB009B1A194A1344174A5360BB79BA7917498A5CD2B242F09D
:401000000102D1B2144AD15400F034FB0346FB7116E0BB790D4A9278D2B291B20F4A22F81310BB79BA790C498A5CD2B242F00202D1B2094AD15400F0BBFB0346FB7100BF7A
:40104000FB7918460837BD4680BD00BF00600040D482FF1FCC80FF1FB082FF1FC482FF1F80B485B000AF0346FB710023FB73FF23BB7317E0FB7B104AD35C7B737A7B0F494F
:4010800013465B0013449B000B440A331B78DBB2FA799A4203D1FB7BBB730223FB73FB7B0133FB73FB7B012BE4D9BB7B18461437BD4680BC704700BFB882FF1FF082FF1F91
:4010C00080B582B000AF0023BB71224B00221A70214B00221A70204B00225A700023FB7110E0FB791D4AD35C7B717B79002B06D07B79082B03D87B791846FFF711FFFB79CB
:401100000133FB71FB79012BEBD9154B1B78DBB2002B18D0114B1B78DBB2002B13D0114B1B78DBB2002B0ED00D4B1B78DBB2082B09D80A4B1B78DBB2082B04D8094B1B7812
:40114000DBB2082B01D90123BB71BB7918460837BD4680BD9C81FF1FB082FF1FBC82FF1FB482FF1FB882FF1F80B584B000AF0346FB71FB79FB73084B1B781A46074B9B5CA3
:40118000DBB207F10F0101221846FFF7FFFD00BF1037BD4680BD00BF9C81FF1FB482FF1F80B500AF054B1B781A46054B9B5CDBB21846FFF7A5FD0346184680BD9C81FF1F83
:4011C000BC82FF1F80B582B000AF084B1B781A46074B9B5CFB71B91DFB7901221846FFF759FEBB7918460837BD4680BD9C81FF1FBC82FF1F80B485B000AF78600B46FB7016
:401200001346BB707B68DB7803F00303FB737B689B785BB2002B1ADAFB7B032B0AD0BB7803F001031449FA78CA54BB7843F00103BB701BE0BB789B08DBB203F001030F4994
:40124000FA78CA54BB7843F00403BB700EE0FB7B032B0BD0BB785B08DBB203F001030849FA78CA54BB7843F00203BB70BB7818461437BD4680BC7047B482FF1FB882FF1FCA
:40128000BC82FF1F80B582B000AF374B1B78BB71BB7903F01003002B62D00123FB7197F90630002B12DABB7903F00F03012B02D00023FB711CE000F061F82C4B1B78DBB2D5
:4012C0005BB2002B14DA0023FB7111E0BB7903F04003002B02D000F095F809E0BB7903F02003002B02D000F0B3F801E00023FB71FB79002B34D01C4B1B78BB7197F906309A
:40130000002B2DDB1A4B1B78DAB21A4B1B78DBB21343BB71184ABB791370174B1B78DBB2BA799A421CD1114B1B78FB710E4B1B78DBB223F07F03BB71BB79002B0AD10A4B34
:401340000A4A1278D2B21A70074B1B78DBB203F00F03FB71054B1B78DBB2FA799A42E2D100BF0837BD4680BD28600040E982FF1F5E83FF1FEC82FF1F2960004080B582B0E2
:4013800000AF1D4B1B78FB711B4AFB7913701A4B1B78FB7197F90730002B03DA174AFB79137025E0022000F045FA154B1B78DBB203F06003202B08D0402B0BD0002B0ED191
:4013C00000F0F8FA0346FB710CE001F00DFD0346FB7107E001F000FB0346FB7102E00023FB7100BFFB79002B02D1044B03221A7000BF0837BD4680BD28600040E982FF1F03
:401400000060004080B500AF104B1B78DBB2062B19D801A252F823F0471400004714000035140000471400003B140000471400004114000000F0F8F806E000F0A7F903E0F9
:4014400000F0D2F900E000BF00BF80BDCC82FF1F80B500AF124B1B78DBB2062B1DD801A252F823F09B1400009B140000811400009B140000871400009B1400008D14000096
:4014800000F0D8F80AE000F027F907E0032000F0D1F9044B03221A7000E000BF00BF80BDCC82FF1FE982FF1F80B483B000AF0023FB71294B1B78DBB29AB2284B1B889BB238
:4014C00013449AB2254B1A8015E02549FB79254A52681278D2B2CA54224B5B680133214A5360FB790133FB711E4B1B889BB2013B9AB21C4B1A801B4B1B889BB2002B02D048
:40150000FB79072BE1D9144B1B78DBB2082B02D0FB79002B0FD0144B1B78DBB283F07F03DB43DAB2104B1A70104B0F221A70104B02221A7005E00D4B02221A700C4B0222C1
:401540001A700C4AFB791370034AFB79137000BF0C37BD4680BC7047C882FF1FCA82FF1F00600040D482FF1F5E83FF1FE982FF1FCC82FF1FEC82FF1F80B582B000AF164B7B
:401580001B889BB2002B02D100F02EF81EE0134B02221A70124B00221A7000F06BF9114BDB79DBB29BB21B029AB20E4B9B79DBB29BB21343FB80084B1B889BB2FA889A4214
:4015C00002D2054AFB881380FFF76EFF012318460837BD4680BD00BFD482FF1FCC82FF1F5E83FF1F0060004080B400AF094B02221A70094B80221A70084B0F221A70084B4A
:4016000000221A70074B00221A7001231846BD4680BC7047CC82FF1F5E83FF1FE982FF1FC882FF1FEC82FF1F80B500AFFFF73CFF00BF80BD80B500AF0A4B1B78DBB29AB2EA
:40164000094B1B889BB213449AB2074B1A80074B00221A70012000F0EDF8054B03221A7000BF80BDC882FF1FCA82FF1FCC82FF1FE982FF1F80B582B000AF124B04221A70BE
:40168000114B80221A7000F0F5F8104BDB79DBB29BB21B029AB20D4B9B79DBB29BB21343FB800B4B1B889BB2FA889A4202D2084AFB881380074B0B221A7001231846083712
:4016C000BD4680BDCC82FF1F5E83FF1F00600040D482FF1FE982FF1F80B483B000AF0023BB71234B1B78DBB203F00F03DBB2023BFB71FB799AB21F4B1B889BB213449AB2B7
:401700001C4B1A8018E01C4B5B681C49BA798A5CD2B21A70184B5B680133174A5360BB790133BB71FB79013BFB71134B1B889BB2013B9AB2104B1A800F4B1B889BB2002B9C
:4017400002D0FB79002BDED10D4AFB7913700D4B1B78DBB283F07F03DB43DAB2094B1A70094B0B221A7000BF0C37BD4680BC704729600040CA82FF1FD482FF1F00600040BC
:40178000EC82FF1F5E83FF1FE982FF1F80B500AF054B00221A70012000F04CF8034B03221A7000BF80BD00BFCC82FF1FE982FF1F80B400AF084B06221A70084B06221A7046
:4017C000074B80221A70074B00221A7001231846BD4680BC704700BFCC82FF1FE982FF1F5E83FF1FEC82FF1F80B500AF0D4B1B78DBB2002B0AD00C4A0A4B1B78DBB263F037
:401800007F03DBB21370074B00221A70074B00221A70012000F00EF8054B03221A7000BF80BD00BFEA82FF1F08600040CC82FF1FE982FF1F80B483B000AF0346FB710B4B01
:401840009B68002B0CD0094B9B68FA791A70074B9B68074A128892B25A80044B00229A6000BF0C37BD4680BC704700BFD482FF1FCA82FF1F80B400AF094B00221A80094B65
:401880009B68002B07D0074B9B6800221A70054B9B6800225A8000BFBD4680BC704700BFCA82FF1FD482FF1F80B400AF0D4B01221A700D4B9B7C0D4B1B7BDBB203F00303B6
:4018C000012B08D0094BDB7BDBB283F07F03DB43DAB2064BDA73054B01225A7300BFBD4680BC70470B600040FC5F0040F082FF1F80B400AF0E4B02221A700E4B93F8223085
:401900000D4B1B7EDBB203F00303012B08D00A4BDB7EDBB283F07F03DB43DAB2064BDA76054B01225A7600BFBD4680BC704700BF0B600040FC5F0040F082FF1F80B400AF41
:40194000104B04221A70104B93F832300F4B93F82430DBB203F00303012B0AD00B4B93F82730DBB283F07F03DB43DAB2074B83F82720064B012283F8252000BFBD4680BCA5
:40198000704700BF0B600040FC5F0040F082FF1F80B400AF00BFBD4680BC704780B500AFFFF76EF900BF80BD80B500AF01F03EF800BF80BD80B586B000AF0023FB759D4B6A
:4019C0001B78FB7100233B619B4B00221A8097F90730002B80F20481964B5B78DBB20A2B00F21B8201A252F823F000BF371B00001B1E00001B1E00001B1E00001B1E0000A4
:401A00001B1E0000191A00001B1E0000AB1B00001B1E0000C11B0000864BDB78DBB2012B0ED100F049FEB860BB685B68824A5360814B12221A80FFF79FFD0346FB75EEE102
:401A40007C4BDB78DBB2022B25D17A4B9B78DBB2184600F009FEB860BB68002B00F0DF81BB685B68744A5360734B5B6803331B78DBB29BB21B029AB26F4B5B6802331B7803
:401A8000DBB29BB213439AB26B4B1A80FFF774FD0346FB75C3E1674BDB78DBB2032B45D10023FB73654B3B6109E03B691B78BB71BB793A6913443B61FB7B0133FB735D4B0D
:401AC0009B78DBB2FA7B9A4204D23B691B78DBB2002BEAD1574B9B78DBB2EE2B01D1584B3B61544B9B78DBB2002B0BD0514B9B78DAB2544B1B7C9A4204D1534800F0ACF972
:401B0000514B3B613B691B78DBB2002B00F087813B691B78DBB29AB2474B1A80464A3B695360FFF729FD0346FB7578E101F05CF90346FB7573E1FB7903F00303002B20D05A
:401B4000022B00D030E03C4B02221A80394B1B79DBB203F07F023D4913465B0013449B000B4402331B78DAB2394B1A70384B00225A70314B364A5A60FFF7FEFC0346FB754F
:401B800012E02D4B02221A80324B1B78DAB2304B1A702F4B00225A70274B2D4A5A60FFF7EBFC0346FB7500BF40E1234B01221A80214B294A5A60FFF7DFFC0346FB7535E179
:401BC0001D4B01221A801B4B1B79DBB21A46234B1344194A5360FFF7CFFC0346FB7525E1144B5B78DBB2013B0A2B00F21A8101A252F823F0FF1C0000231E00008D1D0000BB
:401C0000231E0000211C0000231E0000231E0000231E0000651C0000231E0000BB1C0000044B9B78DAB20E4B1A70FFF7C1FD0346FB75FBE000600040D482FF1FB02F0000BE
:401C4000C4300000582F00006483FF1FF082FF1FA081FF1FED82FF1FEB82FF1F5C83FF1FEA82FF1F744B9B787B717B79002B06D07B79013BDBB2184600F0F6FCB8607B79BA
:401C8000002B02D0BB68002B03D17B79002B40F0CA806A4B1B78DBB27A799A4208D0674A7B791370664B01221A70012000F0DCF9FFF77EFD0346FB75B5E000F055FE034639
:401CC000002B00F0B2805C4B1B793B715A4B1B79DAB25C4B1A703B795B4AD35CDAB23B795A49CB5CDBB29A4204D0554B01221A7000F08CFBFFF75CFD0346FB7595E0FB7936
:401D000003F00303012B20D0012B0CD3022B00D03BE0494B9B78DBB2002B31D100F078FD0346FB752CE0444B9B78DBB2012B29D1474B1B78DBB223F00203DAB2444B1A701C
:401D4000FFF736FD0346FB751CE03B4B1B79DBB2012B19D8384B9B78DBB2DB43DBB2364A1279D2B2114610463A4A125CD2B21340DAB2384B5A54FFF71BFD0346FB7503E087
:401D800000BF53E000BF51E000BF4FE0FB7903F00303012B20D0012B0CD3022B00D03BE0254B9B78DBB2002B31D100F0BDFC0346FB752CE0204B9B78DBB2012B29D1244B5C
:401DC0001B78DBB243F00203DAB2214B1A70FFF7EFFC0346FB751CE0174B1B79DBB2012B19D8154B9B78DBB2DB43DBB2124A1279D2B211461046174A125CD2B21340DAB2DE
:401E0000144B5A54FFF7D4FC0346FB7503E000BF0CE000BF0AE000BF08E000BF06E000BF04E000BF02E000BF00E000BFFB7D18461837BD4680BD00BF00600040EB82FF1FA2
:401E4000E882FF1FE082FF1FD082FF1F5C83FF1FED82FF1F6083FF1FB0B58AB000AF7860324B07F114041D460FCD0FC42B682370002387F826307B68002B52D07B68222225
:401E80001A707B68013303221A7007F10C03184600F076FE022387F827303EE097F827307A68134497F8262007F128010A4412F81C2C1209D2B207F128010A4412F8142CE3
:401EC0001A7097F8273001337A68134400221A7097F8273002337A68134497F8262007F128010A4412F81C2C02F00F0207F128010A4412F8142C1A7097F8273003337A682B
:401F0000134400221A7097F82630013387F8263097F82730043387F8273097F82730212BBCD900BF2837BD46B0BD00BF442F000090B482B000AF0123FB7180E0464AFB791D
:401F40001B0113440C221A70FA79444913465B0013449B000B4405331B78DBB2002B1CD0FA793E4913465B0013449B000B4404331B78DBB25BB2002B07DA394AFB791B0160
:401F8000134402330C221A700EE0354AFB791B011344023308221A7006E0314AFB791B011344023380221A702B48F979FA792B4C13465B0013449B00234406331B889BB2F2
:401FC000DAB20B01034406331A702348F979FA79224C13465B0013449B00234406331B889BB21B0A9BB2DAB20B01034407331A701948F979FA79194C13465B0013449B00E5
:40200000234406331B889BB2DAB20B01034404331A701148F979FA79104C13465B0013449B00234406331B889BB21B0A9BB2DAB20B01034405331A70FB790133FB71FB7905
:40204000082B7FF67BAF074BFF221A7000BF0837BD4690BC704700BF70600040F082FF1FFC5F00400A60004080B58AB000AF0346FB7100237B84002387F8273050E097F83C
:402080002720B34913465B0013449B000B4400221A7097F82720AE4913465B0013449B000B44023300221A7097F82720A84913465B0013449B000B44033300221A7097F86C
:4020C0002720A34913465B0013449B000B44083300221A8097F827209D4913465B0013449B000B440A3300221A7097F82720984913465B0013449B000B44013300221A709B
:4021000097F82720924913465B0013449B000B44053300221A7097F82730013387F8273097F82730082BAAD9FB79002B16D0002387F825300EE097F82530864A0021D15425
:4021400097F82530844A0021D15497F82530013387F8253097F82530012BECD97F4B1B78DBB2002B00F04A810023FB767B4B1B78DBB2013BDBB2184600F076FA78617B6918
:402180005B683B613B6907331B7803F04003002B08D0734B1B78DBB243F00103DAB2704B1A7007E06E4B1B78DBB223F00103DAB26B4B1A707B6908337B617B691B7887F89C
:4021C0002730012387F82530B6E07B695B68FB61002387F82630A3E097F82520FB699B7803F07F039A4240F0938097F82520584913465B0013449B000B4408331B889AB209
:40220000FB699B889A420CD297F82520FB6998884F4913465B0013449B000B44083302461A80FB691B781A464A4B9B5CDAB2FB695B789A426CD197F82520FB6998784449C7
:4022400013465B0013449B000B44043302461A7097F82520FB69D8783D4913465B0013449B000B4402461A70FB69DB7803F00303FB73FB699B785BB2002B1CDA97F82520F4
:40228000FB7B012B01D1072000E00D20304913465B0013449B000B44053302461A7097F825202B4913465B0013449B000B44013301221A701BE097F82520FB7B012B01D19D
:4022C000052000E00920224913465B0013449B000B44053302461A7097F825201C4913465B0013449B000B44013300221A70FB699B790A2B03D0FB699B79022B08D1FA7EC2
:4023000097F825301946F869FEF774FF0346FB76FB690833FB6197F82630013387F8263097F8262097F827309A42FFF455AF97F82530013387F8253097F82530082B7FF6E8
:4023400044AF7B695B68FB61002387F8253020E0F082FF1F5C83FF1FD082FF1FEB82FF1FED82FF1FFB699B7803F07F02FB691878244913465B0013449B000B440A33024695
:402380001A70FB690833FB6197F82530013387F8253097F8252097F827309A42E2D300F09DF90246184B1A6000237B84012387F827301DE097F82720124913465B00134461
:4023C0009B000B4406337A8C1A8097F827200D4913465B0013449B000B4408331B889AB27B8C13447B8497F82730013387F8273097F82730082BDDD9FFF79AFD00BF283708
:40240000BD4680BDF082FF1FE482FF1F90B585B000AF8F4B1B78DBB2002B00F015818C4B1B78DBB2013BDBB2184600F01DF978607B6808337B607B681B78FB707B685B68F8
:40244000BB60844B1B78BB700023FB73F7E0BB681B78BA789A4240F0EC80BB787E4AD35CDAB2BB685B789A4240F0E380BB689B7803F07F037B70BB68DB7803F003033B7021
:402480007A78764913465B0013449B000B44033300221A707A78BB689878704913465B0013449B000B44043302461A707A78BB68D8786A4913465B0013449B000B44024663
:4024C0001A707A78BB689888644913465B0013449B000B44083302461A80BB689B785BB2002B1ADA7A783B78012B01D1072000E00D205A4913465B0013449B000B44053355
:4025000002461A707A78554913465B0013449B000B44013301221A7019E07A783B78012B01D1052000E009204C4913465B0013449B000B44053302461A707A78474913462A
:402540005B0013449B000B44013300221A70444A7B781B011344023301221A70404879787A783E4C13465B0013449B00234408331B889BB21B0A9BB2DAB20B0103441A7001
:40258000374879787A78354C13465B0013449B00234408331B889BB2DAB20B01034401331A70304879787A782C4C13465B0013449B00234406331B889BB2DAB20B0103447B
:4025C00006331A70274879787A78244C13465B0013449B00234406331B889BB21B0A9BB2DAB20B01034407331A701E4879787A781A4C13465B0013449B00234406331B8873
:402600009BB2DAB20B01034404331A70154879787A78124C13465B0013449B00234406331B889BB21B0A9BB2DAB20B01034405331A70BB680833BB60FB7B0133FB73FA7BC0
:40264000FB789A42FFF403AF00BF1437BD4690BDEB82FF1FE082FF1F5C83FF1FF082FF1FFC5F00407060004080B485B000AF0346FB710F4B1B78DBB20E4ADB0013445B6835
:40268000FB60FB681033FB60FB681B78FA799A4202D30023FB6005E0FB79DB00FA6813445B68FB60FB6818461437BD4680BC7047C982FF1FBC30000080B400AF054B1B78FE
:4026C000DBB2054ADB0013445B681846BD4680BC704700BFC982FF1FBC30000080B584B000AF104B1B78DBB2013BDBB21846FFF7BBFFB860BB68002B0DD0BB685B681B797A
:40270000FB71FB790233DB00BA681344BB60BB685B68FB6001E00023FB60FB6818461037BD4680BDEB82FF1F80B582B000AF0023FB71344B1B79DBB203F07F03BB71BB7988
:40274000002B5AD0BB79082B57D8BA79B9792E480B465B000B449B00034402331B78DBB243F00103D8B2284913465B0013449B000B44023302461A70BA79234913465B00E0
:4027800013449B000B44033300221A70BA79B9791D480B465B000B449B00034401331B78DBB243F00203D8B2174913465B0013449B000B44013302461A70BA7912491346F7
:4027C0005B0013449B000B4404331B78DBB25BB2002B07DA0D4ABB791B01134402338D221A7006E0094ABB791B011344023389221A70FEF7DDFF0346FB71FB791846083780
:40280000BD4680BD00600040F082FF1FFC5F004080B582B000AF0023FB71504B1B79DBB203F07F03BB71BB79002B00F09280BB79082B00F28E80BA79B97949480B465B0021
:402840000B449B00034402331B78DBB223F00103D8B2434913465B0013449B000B44023302461A70BA793E4913465B0013449B000B44033300221A703A49BB793948BA79AD
:40288000120102441278D2B202F07F02D2B21B010B441A70BA79B97931480B465B000B449B00034401331B78DBB223F00203D8B22B4913465B0013449B000B44013302462F
:4028C0001A70BA79264913465B0013449B000B4404331B78DBB25BB2002B1BDABA79204913465B0013449B000B4401331B78DBB2012B07D11B4ABB791B01134402330C22DB
:402900001A7022E0174ABB791B01134402330D221A701AE0BA79124913465B0013449B000B4401331B78DBB2012B07D10D4ABB791B011344023308221A7006E0094ABB79EC
:402940001B011344023309221A70FEF731FF0346FB71FB7918460837BD4680BD00600040F082FF1FFC5F004080B584B000AF0023FB73154B1B79BB73144B1B78DBB2013B7E
:40298000DBB21846FFF770FEB860BB685B681B79FB71BA7BFB799A4202D9BB7B022B0ED8BB7BBA7B0A498A5CD1B20A4AD154BB7B054A9278D1B2064AD1540123FB73FB7BF2
:4029C00018461037BD4680BD00600040EB82FF1F5C83FF1FD082FF1F80B582B000AF0023FB710F4B1B78DBB25BB2002B12DA0C4B5B78DBB2012B00D00CE00A4B0A4A5A6015
:402A0000094B1B789AB2074B1A80FEF7B5FD0346FB7100BFFB7918460837BD4680BD00BF00600040D482FF1FD830000080B400AF054B1B78DBB203F040039B09DBB2184618
:402A4000BD4680BC704700BF8F45004080B483B000AF134B7F221A70124B80221A707F23FB710CE0FB79DB0003F1804303F5F043FA79013AD2B21A70FB79013BFB71FB79EE
:402A8000002BEFD1FB79DB0003F1804303F5F04300221A7000BF0C37BD4680BC704700BFE980FF1FE880FF1F80B483B000AF0346FB7101BE00BF0C37BD4680BC704700BF49
:402AC00080B582B000AF0346FB80FB88054A127802FB03F3184600F077F900BF0837BD4680BD00BFF880FF1F80B584B000AF03463960FB710F4B1B68FB60FB791F2B02D925
:402B00000020FFF7D1FFFB7903F01F0310339B00FA6813441B68BB60FB7903F01F0310339B00FA6813443A681A60BB6818461037BD4680BD08ED00E080B582B000AF034679
:402B40000A46FB711346BB71BB79072B02D90020FFF7AAFFFB791F2B02D90020FFF7A4FFFB7903F01F0303F1604303F56443BA795201D2B21A7000BF0837BD4680BD00BF72
:402B800080B483B000AF7860264B1B78DBB21A467B681A60244B1B78DBB21B027A6812681A437B681A60214B1B78DBB21B047A6812681A437B681A601D4B1B78DBB21B06AD
:402BC0007A6812681A437B681A607B680433194A1278D2B21A60184B1B78DBB21A027B6804337968043109680A431A60134B1B78DBB21A047B6804337968043109680A4329
:402C00001A600F4B1B78DBB21A067B6804337968043109680A431A6000BF0C37BD4680BC704700BF0301004904010049EC4600400201004901010049000100490501004924
:402C40000601004980B483B000AF0346FB71044AFB79137000BF0C37BD4680BC704700BF7964004080B500AF064B00221A70064B00221A70002000F057F8002000F034F8A7
:402C800000BF80BD205800402158004080B400AF094A094B1B78DBB243F00103DBB21370064A064B1B78DBB243F00103DBB2137000BFBD4680BC7047A8430040B843004093
:402CC00080B500AF074B1B78002B04D1FFF7CAFF044B01221A70FFF7D9FF642000F044F800BF80BDA281FF1F80B483B000AF0346FB710C4A0B4B1B78DBB223F00203DBB259
:402D000013700849074B1B78DAB2FB7903F00203DBB21343DBB20B7000BF0C37BD4680BC704700BF2058004080B582B000AF0346FB710C4A0B4B1B78DBB223F00C03DBB242
:402D400013700849074B1B78DAB2FB7903F00C03DBB21343DBB20B7000F016F800BF0837BD4680BD2058004080B483B000AF0346FB71044AFB79137000BF0C37BD4680BC68
:402D8000704700BF805B004080B483B000AF0B4B1B78DBB203F00C039B08DBB20633FB71074AFB7903F1924303F590731B78DBB2137000BF0C37BD4680BC70472058004043
:402DC00008460040000000000230800803D000BF01380046FCD17047EFF3108072B6704780F31088704700BF80B582B000AF0023BB711B4B1B78DBB203F00303012B02D042
:402E0000022B04D012E0164B1B79FB7111E0144B1B79DBB203F07F02124913465B0013449B000B440A331B78FB7102E00023FB7100BFFB79022B0ED80B4B1A68FB79134473
:402E40001B78022B04D1FEF799F80346BB7102E00023BB7100BFBB7918460837BD4680BD00600040F082FF1FE482FF1F014B1868704700BF6081FF1F0E4B70B51E460E4C90
:402E80000025E41AA410A54204D056F8253098470135F8E700F036F9084B094C1E46E41AA4100025A54204D056F8253098470135F8E770BD103100001031000010310000A5
:402EC0001831000010B5431E0A44914204D011F8014B03F8014FF8E710BD03460244934202D003F8011BFAE77047034611F8012B03F8012B002AF9D17047000000000000ED
:402F0000004F0040180040510040300000000140800000010140000F00140140000800400140000A004C0140000210500140100080000140480F0048800000500140C80F67
:402F40000048100030313233343536373839414243444546000000001201000202000008B40432F2010001028001000009024300020101C032090400000102020103052454
:402F800000100104240202052406000105240100010705810308000A09040100020A000004070582024000000705030240000000040309042C034300790070007200650052
:402FC000730073002000530065006D00690063006F006E0064007500630074006F007200100355005300420055004100520054003803430044004300200043006F006D00EF
:403000006D0075006E00690063006100740069006F006E00200049006E007400650072006600610063006500260343004400430020004400610074006100200049006E0044
:4030400074006500720066006100630065000C034300530033003000310000000203000000008103080002000100820240000A000100030240000A00020A0000010000007E
:403080006C2F0000030000006030000000000000000000000000000000000000000000007830000001000000582F00000000000000000000010000007C3000000100000004
:4030C000A430000012034D00530046005400310030003000010000002800000000010400010000000000000000014359555342000000303030303100000000000000000075
:4031000043000000F8B500BFF8BC08BC9E4670474D00000039070000F8B500BFF8BC08BC9E4670472900000038310000C880FF1FA0000000200200000000000000C2010044
:4031400000000800C201000000080000A12000000000020000000000807F0000030000000087930360EA00003C00000000003075000000000000000000000000000000006F
:4031800000000000000000000000000000000000003100000000000000000000000000000000000000000000000000000000000000000000000000000000000000000000DE
:4031C000000000000000000000000000000000000081FF1F000000000000000000000000000000000000000000000000000000000000000000000000000000000000000030
:40320000000000000000000000000000000000000000000000000000000000000000000000000000000000000000000000000000000000000000000000000000000000008E
:40324000000000000000000000000000000000000000000000000000000000000000000000000000000000000000000000000000000000000000000000000000000000004E
:40328000000000000000000000000000000000000000000000000000000000000000000000000000000000000000000000000000000000000000000000000000000000000E
:4032C00000000000000000000000000000000000000000000000000000000000000000000000000000000000000000000000000000000000000000000000000000000000CE
:020000040003F7
:0200000480007A
:4000000001450040044F004009520040015B004006640040036500401F0001403901014050020140470301403B040140530501406606014056070140340801404E090140AC
:40004000420A0140530B0140420C01404C0D01404E0E0140360F014047140140461501404416014045170140221801404F190140431A01404E1B01400D4001401741014005
:400080001A4201400D430140014401400B4501400C460140114701401048014010490140114C01400B4D014006500140035101407E0201200A4B0D20164B00C00160085438
:4000C0000990181019186004611C7C402784810D846F850F8A0F8B388C72840F876F880703010F01110115011B0125012B013701401449FF4AFF4BFF4F0150185280580448
:4001000059045A045B045C115D045F016040624064406540668068806A806C806E8001480202030804400740084009040A200D080E040F021004120117081D081E041F41D3
:40014000228025802604275929082B082C202F41321637513A433C423D203F02400241404280440246804F05548056805C805F05700281408444864489088C80C097C2E5D6
:40018000C423CAD6CCB7CEB9D099D6D0E209E60200A3025C0380070108FE091A0A010B600CC50E3A11521328140E157A16F0187F19381C961E682304260129282B522D6268
:4001C0002F1831803378350636FF37013E405608580459045B045D905F0180108220840885C58601873A880B8A048C208E1F9007910E93F0941095FE962097019840999664
:400200009B689C109DA39E209F5CA00CA202A6C0A80CAA01AB01AD7FAE40B00FB1FFB240B480B630BA80BE04BF01D804D904DF0102820314042A05040680070108010940B9
:400240000A240C100DA80F10108211041224150419041A861B411F402080246025402628280129902E802F4830803243331434103608370139083A043F155D105F406705A3
:400280008202854889808B0894409540960898049B109D089E02A002A188A204A421A514B308B480B680C0DFC2EFC42FCABCCCEFCEE2D630D830E208E408E614EC2008093B
:4002C0000A040D02170418011B081F03200929042E023008310132023304340435023601370838823E403F14540F580459045B045F058110830285B687088A088B1E8DD83E
:400300008E048F0290059501A101A203A5D8A604A704A96EAF01B002B201B301B404B5E0B608B71EB922BE14BF05D40FD804D904DB04DF0103080480060409220A040B8865
:400340000D021080118015021708188019201A221B021C1A1D0222842344240225202612272029202D082F4630803210330837083B403D043E8A3F1041804282430158014D
:400380005A085B505C825E045F20610462207A1080808202831084038504870490289280931094029558962098049DD09F05A040A1C8A204A341A421A534A680AE04AF40C3
:4003C000C0C2C212C439CAF4CC4ECEF8D6FFD806DE02E208E601EA40EE0900CF0104023003F0057708FD0A020C9E0DC10E600F22149416601707187319811B121C301EC929
:40040000230825B7260F27402DC02F14350F36FF37F03E404065410349FF4AFF4BFF4DA04F015018580459045A045F016040628064406540668068406A806C406D206E8081
:40044000810283018602882A8D038E049032910193029601970398329C189D03A303AC02AD03B001B101B302B406B638B880C065C103C50EC6C2C743C83DC9FFCAFFCBFF37
:40048000CDAFCE07CF01D018D804D904DA04DC10DF01E040E280E440E540E680E840EA80EC40ED20EE800080010803040422068807010AA10B080DA80E200FC51340170833
:4004C00019901A451F80210223102540270928012A012E882F803006315032103610370839483A023B083D803F05402044204708480849044A024C0C4E03508051015220F9
:4005000053085D085E08814482018304854088208B10902A9282955A98049DD49E0C9F0DA040A1A8A204A341A4A0A514A620A708A801A908AC84B410B740C0D7C2EFC42107
:40054000CAD9CC6BCED9D042D23CE204E410E60CEA01004006800A01140818101C20222426402A0A2E1030F832023401360438023E015608580459045B045C115D905F0140
:4005800085049F01AB02B102B304B501BF04C026C104C6CBC70EC81CC9FFCAFFCBFFCEF0CF44D00CD608D804D904DA04DB04DC01DD93DF01E6C0EA40EB0200280102040117
:4005C0000506070408100A400C500E2A0F021040112012041505160A1C281D211E622110220628082E403280361539483A403C093D2043224A085088510452105B605C20FD
:400600005F4060086280640465106680670468028244870189108C208F2090089201964897049C049D129E94A208A322A48EA510A614B008B201B301B610B780C07EC2EABC
:40064000C4FACA14CCE8CEE2D005D204D63CD83CE490E620EA0103C304130503066C070409030A350B080C130D100EE4114113821403160417101AC81B821CCA1E341F2C15
:400680002310251026802B102F4130A83110340F350F36F037E03AA23B203F414003464049FF4A074BFF4C404D204EF04F05500854015604580459045A045B045C335D331A
:4006C0005F01604061A862406320D418D604D804D904DB04DC11DD30DF0100200208032205020608080809200A020C400E681020160418801A021B72218022902380280878
:4007000029202A902B512E403002311032083380344035023614388039163B403C083D203E08421048105020511059205A085B815E026080678A7A207B1080808740900827
:4007400091169210930A95209642974498409C049D029E84A120A201A496A580A6B4A711A804AD08AE10B202B720C057C2F7C444CA1FCCFFCE6FD002D68FD8B1EA40EE01D1
:400780000004013F04CF0502063009060A0C0C20100411041208147C1682180819391B061D111EC3203C22C1231124102830290E2B312CFF2D0F2F3030B03110323F330763
:4007C00034703508372039803A8A3B083F1056025712580459045B045C335D305F0189108D0C8F11911C93029520970399099B109D14A510A70CB120B31FBF01D804D90478
:40080000DC31DF01010A04100681071008480A400C020D080E010F04110812041310164217281C021D181F0A22062404260127122A402B122E012F0A308031203205340897
:4008400035203684371139203B403C023D023E2A5C046C206D5476297729810284408D10901091029211930A9550964297509C049D329F02A134A320A436A581A634A70157
:40088000B00CB740C0FCC2FDC4F6CAB2CCBFCEECD640E208E610E840EA20EC600103030C04030510090F0A010C040D1010031145138A1520190F1C02231024042804290863
:4008C0002B822D042F41310F320333C035303604380839203E04580459045C335F0182018A049201A202A602A901AA04B004B202B401B501B601BE45BF10C065C104C202CE
:40090000C401C6E0C70CC818C9FFCAFFCBFFCC62CDA0CEF0CF41D00CD280D804D904DA04DB04DC14DD43DF01E640E702E910EA30EB10ED10EE10EF12002401400228051084
:40094000068408800A020B400F80102011101618170219801A111E021F2520102121251028842B012C083022320835023694380439123B403C083D083E603F1045814604F7
:400980004DA056187680828086208A808E01C057C219C476CA2DCCF7CE7FD0B0D230E080E210E602040805300604070809400A0C0F411102152C1710180C1B021D301F0481
:4009C00020022120230424022601273C2D1C300131023202333C340835013604374038083E503F41540F580459045B045F01860F87078C738D318FC290949260949E95F71C
:400A00009660983099A19AC99B529CCF9DC09E309F34A308A4FDA554A602A7A0AD77B30FB5F0B6FFBE40D608D804D904DB04DD90DF01001003100580071009200C500D047B
:400A40000E0C0F8210A01704181019501B021F80213422412320240425042714281029802B402D802E042F803060330634403724388039283D083F8059515B085E8064014D
:400A80006C046D40800481C0830888018C048D0190809508968299809F14A0A0A244A341AE40B110C0A6C2F2C42CCADBCC7FCE5ED61FD810E220E401E610E880EC204054F0
:400AC000410249FF4AFF4BFF4DA04F015018580459045A045C115F016040628064406540668068406A806C406D206E808C08900194049A01A008A206A408AE01B008B20276
:400B0000B404B601B802BE51C014C102C532C6C4C70EC81FC9FFCAFFCBFFCDAFCE07CF01D018D280D40FD804D904DA04DB04DC10DF05E040E280E440E540E680E840EA8007
:400B4000EC40ED20EE8001C0051006420A540C040F0810B013401408160118021A181B8229402A422B042C042E0230443110340135523A013B013F094393471148A04C0105
:400B800050405108521058105A8A610862107340794081108448850292449518980499C09A039C019F04A204A345B002B102B510B606C0D1C26EC4CDCAADCCBECEC1D0AD4B
:400BC000D210D60FD806DE08E080E248E68CE810020803010440068008080C0210801240130216011A021E0420042420261028012C102E2032FF330135023E045602573521
:400C0000580459045B0C5C105D105F01D804D904DC11DF010142042405020602080409100A400CC60E2A108012081541160917041D0424042510260C280429022D022E4004
:400C400030403101320834403614370138043A013C043D403E025D1066206C126D056F05768A7F02814085048610880889208F01900891409241950599019D069E0A9F044F
:400C8000A211A510A604B120B240B340B502B602B740C0F9C2FEC4FACA95CCFBCED3D620D820DE10E080E240E680E810EA40EC20EE900004010502010302050307040C0166
:400CC0000E04120513071405150718051D072005210523022602280529073002330434043501360137025401580459045B0C5C115D105F01800181048404860188209302FE
:400D00009407950896089A029C0A9E059F01A230A80FA904AD01B020B203B308B410B504B60CB703B920BF14D207D306D80CD904DB04DC91DD10DF010102020104080510DC
:400D40000680080509100E2A1080110412081510170219221A021C201D101E621F012001212426802726280429022F0930813101320834083680370138043A013E014620E7
:400D800047045A406D506E086F0A79407F028601881089208B018F20900C91049201940195189702980C99019A819D029E20A080A110A208A520A702A801C079C2EEC45E73
:400DC000CA35CCDBCE83D608DE18E220E423E610E801EC201010168031103208364238083B803E808640C430CCF0CE70E64000080740324136805F02631066206A02711039
:400E000086088C409408978098109D10A440A60AB040C030CC70D680D8C0E210504054405F01630182408301874090809680979098109B409D109E209F02A440A602A804B7
:400E4000AC04B680D460D6C0E290E680EC40EE801B011C808E04971098109B409D109E209F02A440AA02C630EA808740012008085008850497409910B510C002C208D4045E
:400E8000E8021B0826089508974098089930A708AB08B008C608C801EC040B410D04430244018A408C089508974198089930AB01B208C20ED006E202E401EE01020405087F
:400EC000208086208B118D10971098109D109E249F02A301B740C060C840E21053016302660483018B028E049F02A301AC10B040B108D480D640D880E620EC4056405A0407
:400F00005F0161106720920499109A409C01A702B120B204D402D603D803EA04EC047004800487108B029720A702AB01B001DC01E401EC04100311011A031B011C021D01E6
:400F400000AB01FF100A000000081010000000000008001001000201000400020200010001100208000204040002000401020A24000000000008001004200318080110068D
:400F800000000888000000001400000000EC020007FFFFFF008303011800000001000000040404040044000140004000404080008000800080008000000000000000000026
:400FC00000000000000000001B01000000000000130103000B011A000300000000E0E000001C1C001C0000004000060000000000C0000000000B0B0000F4F4000800140A57
:401000000A00080001000000007B7B00380000000001000000000000000000000000000000000000000000000000000000000000000000000000000000000000000000006E
:401040000000000000000000000000000000000000000000000000000000000000000000000000000000000000000000000000000000000000000000000000000000000070
:401080000000000000000000000000000000000000000000000000000000000000000000000000000000000000000000000000000000000000000000000000000000000030
:4010C00000000000000000000000000000000000000000000000000000000000000000000000000000000000000000000000000000000000000000000000000000000000F0
:4011000000000000000000000000000000000000000000000000000000000000000000000000000000000000000000000000000000000000000000000000000000000000AF
:0200000490006A
:0400000000004005B7
:0200000490105A
:04000000BC90ACAF55
:0200000490303A
:02000000EC6BA7
:0200000490402A
:4000000000000000000000000000000000000000000000000000000000000000000000000000000000000000000000000000000000000000000000000000000000000000C0
:400040000000000000000000000000000000000000000000000000000000000000000000000000000000000000000000000000000000000000000000000000000000000080
:400080000000000000000000000000000000000000000000000000000000000000000000000000000000000000000000000000000000000000000000000000000000000040
:4000C0000000000000000000000000000000000000000000000000000000000000000000000000000000000000000000000000000000000000000000000000000000000000
:0200000490501A
:0C00000000012E16106900012E2CFCD40B
:00000001FF