:4000000000800020110000008D0500008D05000080B500AF024A034B1B68136000F0C0FABC760040FA46004010B5054C237833B9044B13B10448AFF300800123237010BD39
:400040004881FF1F00000000280A0000084B10B51BB108490848AFF300800848036803B910BD074B002BFBD0BDE81040184700BF000000004C81FF1F280A0000C880FF1F9E
:400080000000000080B582B000AF00F06BFC0346FB71FB79DB43DBB2184600F045FC00F0BBFB00BF0837BD4680BD00BF80B500AF00F090FB014800F009FBFEE785000000C7
:4000C00080B582B000AF786039603A680021786800F0A1FC00BF0837BD4680BD80B584B000AFF860B9607A607A68B968F86800F087FC00BF1037BD4680BD00BF80B483B066
:4001000000AF0346FB71FEE780B487B000AF7860396000233B6100237B6127E07B699B007A6813441B68BB60BB68FB73BB6823F0FF03BB6014E03B695B003A6813441B786D
:400140001A46BB68134419463B695B003A6813445B780B703B6901333B61FB7B013BFB73FB7B002BE7D17B6901337B617B692B2BD4D900BF1C37BD4680BC704780B582B0C9
:4001800000AF3C4B04221A803B4B18221A703B4B3A221A803A4B18221A703A4B3B221A80394B18221A70394B81221A80384B18221A70384B00221A80374B1B221A70374B64
:4001C00006221A70364B52221A70364B364A1278D2B21A70354B40F619121A80344B41F251221A800023FB7019237B6014E0FB785B00DAB22F4B1B78DBB203F00103DBB2EA
:400200001343DBB203F00303FB704FF4F07000F0BBFB7B68013B7B607B68002B02D0FB78032BE4D17B68002B02D10320FFF766FF214B4FF480721A801F4B07221A701F4BDD
:4002400000221A701E4B48221A701B4B00221A701C4B00221A701C4B02221A701B4A1B4B1B78DBB243F01F03DBB2137000BF0837BD4680BD804000408240004084400040A7
:4002800086400040884000408A4000408C4000408E40004090400040924000400043004000420040A14600400F01004922420040204200402542004004400040064000406E
:4002C000084000400940004001400040A243004080B582B000AF274B1B78FB71264B1B78BB71264B1B787B71254AFB7903F00703DBB21370234AFB791B09DBB213701E4A33
:40030000BB7943F00303DBB213701C4A7B7943F00303DBB213701C4BE0221A701B4BF4221A701B4B01221A701A4B40221A701A4B40221A70194B01221A70194B03221A70CB
:40034000184BED221A70184B20221A70174B0D221A700A2000F0D4FA084A7B791370064ABB791370124B44221A7000BF0837BD4680BD00BFCF010049F8460040F94600401F
:400380006E5800406F5800400D5100401D5100402C5100400159004003590040835A00408C5A0040205B0040235B0040585B00407658004080B586B000AF72B6574B6122CD
:4003C0001A70FFF7DBFE554B01221A70544A544B1B78DBB243F00403DBB213700023FB7513E0FA7D13465B0013445B004D4A13443B613B691A683B699B889BB219461046D4
:40040000FFF75EFEFB7D0133FB75FB7D072BE8D90023FB751CE0FA7D13469B0013445B00414A1344FB60FB681B68BB60FB685B687B60FB681A7A5B7A1B0213437B807B88BB
:400440001A467968B868FFF749FEFB7D0133FB75FB7D012BDFD935494FF09040FFF754FE04213348FFF72CFE042232493248FFF735FE324B324A1A60324A324B1B78DBB201
:4004800043F00203DBB213702F4A2F4B1B78DBB243F00203DBB213702C4A2C4B1B78DBB243F04003DBB21370294A294B1B78DBB243F01003DBB21370082226492648FFF7AC
:4004C0000DFE082225492648FFF708FE0A2225492548FFF703FE082224492548FFF7FEFD0A2224492448FFF7F9FD082223492448FFF7F4FD234A234B1B78DBB243F00803E9
:40050000DBB21370FFF7E4FE0E2210491E48FFF7E5FD00BF1837BD4680BD00BF00480040E84600402C0A00005C0A0000B000004800760040101000480876004058040140FC
:40054000040400840350014013500140A0430040C2430040D80F004802510040E00F0048C2510040E80F0048F0510040F40F004812510040FC0F00482051004008100048F1
:400580003251004022430040B043004080B500AF00F00AFA03461B680C2B00D1FEE7FEE780B586B000AF224B7B61224B3B61204B7B6135E03B691B68FB603B695B68BB605E
:4005C0003B699B683B6000237B600CE0FB681A68BB681A60BB680433BB60FB680433FB607B6804337B607A683B689A42EED13B69DB683B6000237B6008E0BB6800221A60A7
:40060000BB680433BB607B6804337B607A683B689A42F2D13B6910333B617B69013B7B617B69002BC6D100F0C5F9FFF73FFDFEE701000000980A000080B582B000AF194B25
:40064000194A1A60194A194B1B6843F40073136000237B600FE07B68032B04D8144A7B6852F8233000E0134B13497A6841F822307B6801337B607B682F2BECD90F4B1B7896
:40068000DAB20F4B1A700F4B0B4A1A60FFF792FE00F008F90C4B00221A6000BF0837BD4680BD00BF0CED00E00004FA0514ED00E0000000008D0500000080FF1FBC760040DB
:4006C000C480FF1F08ED00E0C080FF1F80B582B000AF786000F03CF8786800F009F8072000F018F800F028F800BF0837BD4680BD80B485B000AF7860054B1B68FB60FB688C
:4007000058337A681A6000BF1437BD4680BC704708ED00E080B483B000AF0346FB71054AFB795B01DBB2137000BF0C37BD4680BC704700BF06E400E080B400AF034B4022EF
:400740001A6000BFBD4680BC704700BF00E100E080B400AF034B40221A6000BFBD4680BC704700BF80E100E080B582B000AF4CF24F3000F05DF84CF24F3000F075F800F0E6
:400780000BF90346FB710A4A094B1B78DBB243F01003DBB21370FB79184600F001F900F073F8002000F028F800BF0837BD4680BD9164004080B400AF054A054B1B78DBB206
:4007C00063F07F03DBB2137000BFBD4680BC70477F64004080B500AF064B1B78002B04D1FFF7C2FF034B01221A70FFF7E3FF00BF80BD00BF6481FF1F80B483B000AF0346CD
:40080000FB71044AFB79137000BF0C37BD4680BC704700BF8164004080B400AF034B1B78DBB21846BD4680BC704700BF6164004080B483B000AF0346FB80044AFB88138084
:4008400000BF0C37BD4680BC704700BF4068004080B400AF034B1B889BB21846BD4680BC704700BF8068004080B483B000AF0346FB80044AFB88138000BF0C37BD4680BCFE
:40088000704700BF0068004080B500AF01E0FFF7DFFFFFF7C1FF034603F00803002BF6D100BF80BD80B483B000AF134B7F221A70124B80221A707F23FB710CE0FB79DB0025
:4008C00003F1804303F5F043FA79013AD2B21A70FB79013BFB71FB79002BEFD1FB79DB0003F1804303F5F04300221A7000BF0C37BD4680BC704700BFCD80FF1FCC80FF1F76
:4009000080B582B000AF0346FB80FB88054A127802FB03F3184600F037F800BF0837BD4680BD00BFDC80FF1F80B485B000AF0346FB710B4B1B78DBB223F00203FB73084980
:40094000FB795B00DBB203F00203DAB2FB7B1343DBB20B7000BF1437BD4680BC704700BF2051004080B400AF054B1B78DBB203F002035B08DBB21846BD4680BC704700BF05
:4009800020510040000000000230800803D000BF01380046FCD17047EFF3108072B6704780F31088704700BF014B1868704700BF4481FF1F0E4B70B51E460E4C0025E41AE1
:4009C000A410A54204D056F8253098470135F8E700F050F8084B094C1E46E41AA4100025A54204D056F8253098470135F8E770BD800A0000800A0000800A0000880A000027
:400A000010B5431E0A44914204D011F8014B03F8014FF8E710BD03460244934202D003F8011BFAE77047000000000000004F00401800405100403000000001408000000100
:400A40000140000F00140140000800400140000A004C0140000210500140100080000140480F0048800000500140C80F0048100043000000F8B500BFF8BC08BC9E4670479C
:400A80004D00000039060000F8B500BFF8BC08BC9E46704729000000A80A0000C880FF1F800000002000000000000000807F0000030000000087930360EA00003C000000A5
:400AC000000030750000000000000000000000000000000000000000000000000000000000000000700A0000000000000000000000000000000000000000000000000000D7
:400B0000000000000000000000000000000000000000000000000000000000000000000000000000E480FF1F00000000000000000000000000000000000000000000000033
:400B40000000000000000000000000000000000000000000000000000000000000000000000000000000000000000000000000000000000000000000000000000000000075
:400B80000000000000000000000000000000000000000000000000000000000000000000000000000000000000000000000000000000000000000000000000000000000035
:400BC00000000000000000000000000000000000000000000000000000000000000000000000000000000000000000000000000000000000000000000000000000000000F5
:400C000000000000000000000000000000000000000000000000000000000000000000000000000000000000000000000000000000000000000000000000000000000000B4
:020000040003F7
:0200000480007A
:4000000001450040044F004009520040015B004006640040036500401F0001403901014050020140470301403B040140530501406606014056070140340801404E090140AC
:40004000420A0140530B0140420C01404C0D01404E0E0140360F014047140140461501404416014045170140221801404F190140431A01404E1B01400D4001401741014005
:400080001A4201400D430140014401400B4501400C460140114701401048014010490140114C01400B4D014006500140035101407E0201200A4B0D20164B00C00160085438
:4000C0000990181019186004611C7C402784810D846F850F8A0F8B388C72840F876F880703010F01110115011B0125012B013701401449FF4AFF4BFF4F0150185280580448
:4001000059045A045B045C115D045F016040624064406540668068806A806C806E8001480202030804400740084009040A200D080E040F021004120117081D081E041F41D3
:40014000228025802604275929082B082C202F41321637513A433C423D203F02400241404280440246804F05548056805C805F05700281408444864489088C80C097C2E5D6
:40018000C423CAD6CCB7CEB9D099D6D0E209E60200A3025C0380070108FE091A0A010B600CC50E3A11521328140E157A16F0187F19381C961E682304260129282B522D6268
:4001C0002F1831803378350636FF37013E405608580459045B045D905F0180108220840885C58601873A880B8A048C208E1F9007910E93F0941095FE962097019840999664
:400200009B689C109DA39E209F5CA00CA202A6C0A80CAA01AB01AD7FAE40B00FB1FFB240B480B630BA80BE04BF01D804D904DF0102820314042A05040680070108010940B9
:400240000A240C100DA80F10108211041224150419041A861B411F402080246025402628280129902E802F4830803243331434103608370139083A043F155D105F406705A3
:400280008202854889808B0894409540960898049B109D089E02A002A188A204A421A514B308B480B680C0DFC2EFC42FCABCCCEFCEE2D630D830E208E408E614EC2008093B
:4002C0000A040D02170418011B081F03200929042E023008310132023304340435023601370838823E403F14540F580459045B045F058110830285B687088A088B1E8DD83E
:400300008E048F0290059501A101A203A5D8A604A704A96EAF01B002B201B301B404B5E0B608B71EB922BE14BF05D40FD804D904DB04DF0103080480060409220A040B8865
:400340000D021080118015021708188019201A221B021C1A1D0222842344240225202612272029202D082F4630803210330837083B403D043E8A3F1041804282430158014D
:400380005A085B505C825E045F20610462207A1080808202831084038504870490289280931094029558962098049DD09F05A040A1C8A204A341A421A534A680AE04AF40C3
:4003C000C0C2C212C439CAF4CC4ECEF8D6FFD806DE02E208E601EA40EE0900CF0104023003F0057708FD0A020C9E0DC10E600F22149416601707187319811B121C301EC929
:40040000230825B7260F27402DC02F14350F36FF37F03E404065410349FF4AFF4BFF4DA04F015018580459045A045F016040628064406540668068406A806C406D206E8081
:40044000810283018602882A8D038E049032910193029601970398329C189D03A303AC02AD03B001B101B302B406B638B880C065C103C50EC6C2C743C83DC9FFCAFFCBFF37
:40048000CDAFCE07CF01D018D804D904DA04DC10DF01E040E280E440E540E680E840EA80EC40ED20EE800080010803040422068807010AA10B080DA80E200FC51340170833
:4004C00019901A451F80210223102540270928012A012E882F803006315032103610370839483A023B083D803F05402044204708480849044A024C0C4E03508051015220F9
:4005000053085D085E08814482018304854088208B10902A9282955A98049DD49E0C9F0DA040A1A8A204A341A4A0A514A620A708A801A908AC84B410B740C0D7C2EFC42107
:40054000CAD9CC6BCED9D042D23CE204E410E60CEA01004006800A01140818101C20222426402A0A2E1030F832023401360438023E015608580459045B045C115D905F0140
:4005800085049F01AB02B102B304B501BF04C026C104C6CBC70EC81CC9FFCAFFCBFFCEF0CF44D00CD608D804D904DA04DB04DC01DD93DF01E6C0EA40EB0200280102040117
:4005C0000506070408100A400C500E2A0F021040112012041505160A1C281D211E622110220628082E403280361539483A403C093D2043224A085088510452105B605C20FD
:400600005F4060086280640465106680670468028244870189108C208F2090089201964897049C049D129E94A208A322A48EA510A614B008B201B301B610B780C07EC2EABC
:40064000C4FACA14CCE8CEE2D005D204D63CD83CE490E620EA0103C304130503066C070409030A350B080C130D100EE4114113821403160417101AC81B821CCA1E341F2C15
:400680002310251026802B102F4130A83110340F350F36F037E03AA23B203F414003464049FF4A074BFF4C404D204EF04F05500854015604580459045A045B045C335D331A
:4006C0005F01604061A862406320D418D604D804D904DB04DC11DD30DF0100200208032205020608080809200A020C400E681020160418801A021B72218022902380280878
:4007000029202A902B512E403002311032083380344035023614388039163B403C083D203E08421048105020511059205A085B815E026080678A7A207B1080808740900827
:4007400091169210930A95209642974498409C049D029E84A120A201A496A580A6B4A711A804AD08AE10B202B720C057C2F7C444CA1FCCFFCE6FD002D68FD8B1EA40EE01D1
:400780000004013F04CF0502063009060A0C0C20100411041208147C1682180819391B061D111EC3203C22C1231124102830290E2B312CFF2D0F2F3030B03110323F330763
:4007C00034703508372039803A8A3B083F1056025712580459045B045C335D305F0189108D0C8F11911C93029520970399099B109D14A510A70CB120B31FBF01D804D90478
:40080000DC31DF01010A04100681071008480A400C020D080E010F04110812041310164217281C021D181F0A22062404260127122A402B122E012F0A308031203205340897
:4008400035203684371139203B403C023D023E2A5C046C206D5476297729810284408D10901091029211930A9550964297509C049D329F02A134A320A436A581A634A70157
:40088000B00CB740C0FCC2FDC4F6CAB2CCBFCEECD640E208E610E840EA20EC600103030C04030510090F0A010C040D1010031145138A1520190F1C02231024042804290863
:4008C0002B822D042F41310F320333C035303604380839203E04580459045C335F0182018A049201A202A602A901AA04B004B202B401B501B601BE45BF10C065C104C202CE
:40090000C401C6E0C70CC818C9FFCAFFCBFFCC62CDA0CEF0CF41D00CD280D804D904DA04DB04DC14DD43DF01E640E702E910EA30EB10ED10EE10EF12002401400228051084
:40094000068408800A020B400F80102011101618170219801A111E021F2520102121251028842B012C083022320835023694380439123B403C083D083E603F1045814604F7
:400980004DA056187680828086208A808E01C057C219C476CA2DCCF7CE7FD0B0D230E080E210E602040805300604070809400A0C0F411102152C1710180C1B021D301F0481
:4009C00020022120230424022601273C2D1C300131023202333C340835013604374038083E503F41540F580459045B045F01860F87078C738D318FC290949260949E95F71C
:400A00009660983099A19AC99B529CCF9DC09E309F34A308A4FDA554A602A7A0AD77B30FB5F0B6FFBE40D608D804D904DB04DD90DF01001003100580071009200C500D047B
:400A40000E0C0F8210A01704181019501B021F80213422412320240425042714281029802B402D802E042F803060330634403724388039283D083F8059515B085E8064014D
:400A80006C046D40800481C0830888018C048D0190809508968299809F14A0A0A244A341AE40B110C0A6C2F2C42CCADBCC7FCE5ED61FD810E220E401E610E880EC204054F0
:400AC000410249FF4AFF4BFF4DA04F015018580459045A045C115F016040628064406540668068406A806C406D206E808C08900194049A01A008A206A408AE01B008B20276
:400B0000B404B601B802BE51C014C102C532C6C4C70EC81FC9FFCAFFCBFFCDAFCE07CF01D018D280D40FD804D904DA04DB04DC10DF05E040E280E440E540E680E840EA8007
:400B4000EC40ED20EE8001C0051006420A540C040F0810B013401408160118021A181B8229402A422B042C042E0230443110340135523A013B013F094393471148A04C0105
:400B800050405108521058105A8A610862107340794081108448850292449518980499C09A039C019F04A204A345B002B102B510B606C0D1C26EC4CDCAADCCBECEC1D0AD4B
:400BC000D210D60FD806DE08E080E248E68CE810020803010440068008080C0210801240130216011A021E0420042420261028012C102E2032FF330135023E045602573521
:400C0000580459045B0C5C105D105F01D804D904DC11DF010142042405020602080409100A400CC60E2A108012081541160917041D0424042510260C280429022D022E4004
:400C400030403101320834403614370138043A013C043D403E025D1066206C126D056F05768A7F02814085048610880889208F01900891409241950599019D069E0A9F044F
:400C8000A211A510A604B120B240B340B502B602B740C0F9C2FEC4FACA95CCFBCED3D620D820DE10E080E240E680E810EA40EC20EE900004010502010302050307040C0166
:400CC0000E04120513071405150718051D072005210523022602280529073002330434043501360137025401580459045B0C5C115D105F01800181048404860188209302FE
:400D00009407950896089A029C0A9E059F01A230A80FA904AD01B020B203B308B410B504B60CB703B920BF14D207D306D80CD904DB04DC91DD10DF010102020104080510DC
:400D40000680080509100E2A1080110412081510170219221A021C201D101E621F012001212426802726280429022F0930813101320834083680370138043A013E014620E7
:400D800047045A406D506E086F0A79407F028601881089208B018F20900C91049201940195189702980C99019A819D029E20A080A110A208A520A702A801C079C2EEC45E73
:400DC000CA35CCDBCE83D608DE18E220E423E610E801EC201010168031103208364238083B803E808640C430CCF0CE70E64000080740324136805F02631066206A02711039
:400E000086088C409408978098109D10A440A60AB040C030CC70D680D8C0E210504054405F01630182408301874090809680979098109B409D109E209F02A440A602A804B7
:400E4000AC04B680D460D6C0E290E680EC40EE801B011C808E04971098109B409D109E209F02A440AA02C630EA808740012008085008850497409910B510C002C208D4045E
:400E8000E8021B0826089508974098089930A708AB08B008C608C801EC040B410D04430244018A408C089508974198089930AB01B208C20ED006E202E401EE01020405087F
:400EC000208086208B118D10971098109D109E249F02A301B740C060C840E21053016302660483018B028E049F02A301AC10B040B108D480D640D880E620EC4056405A0407
:400F00005F0161106720920499109A409C01A702B120B204D402D603D803EA04EC047004800487108B029720A702AB01B001DC01E401EC04100311011A031B011C021D01E6
:400F400000AB01FF100A000000081010000000000008001001000201000400020200010001100208000204040002000401020A24000000000008001004200318080110068D
:400F800000000888000000001400000000EC020007FFFFFF008303011800000001000000040404040044000140004000404080008000800080008000000000000000000026
:400FC00000000000000000001B01000000000000130103000B011A000300000000E0E000001C1C001C0000004000060000000000C0000000000B0B0000F4F4000800140A57
:401000000A00080001000000007B7B00380000000001000000000000000000000000000000000000000000000000000000000000000000000000000000000000000000006E
:401040000000000000000000000000000000000000000000000000000000000000000000000000000000000000000000000000000000000000000000000000000000000070
:401080000000000000000000000000000000000000000000000000000000000000000000000000000000000000000000000000000000000000000000000000000000000030
:4010C00000000000000000000000000000000000000000000000000000000000000000000000000000000000000000000000000000000000000000000000000000000000F0
:4011000000000000000000000000000000000000000000000000000000000000000000000000000000000000000000000000000000000000000000000000000000000000AF
:0200000490006A
:0400000000004005B7
:0200000490105A
:04000000BC90ACAF55
:0200000490303A
:02000000A965F0
:0200000490402A
:4000000000000000000000000000000000000000000000000000000000000000000000000000000000000000000000000000000000000000000000000000000000000000C0
:400040000000000000000000000000000000000000000000000000000000000000000000000000000000000000000000000000000000000000000000000000000000000080
:400080000000000000000000000000000000000000000000000000000000000000000000000000000000000000000000000000000000000000000000000000000000000040
:4000C0000000000000000000000000000000000000000000000000000000000000000000000000000000000000000000000000000000000000000000000000000000000000
:0200000490501A
:0C00000000012E16106900012E1EB9CE62
:00000001FF